{
  "contractName": "Certification",
  "abi": [
    {
      "inputs": [],
      "stateMutability": "nonpayable",
      "type": "constructor"
    },
    {
      "anonymous": false,
      "inputs": [
        {
          "indexed": false,
          "internalType": "uint256",
          "name": "certId",
          "type": "uint256"
        },
        {
          "indexed": false,
          "internalType": "string",
          "name": "certHash",
          "type": "string"
        },
        {
          "indexed": false,
          "internalType": "uint256",
          "name": "certSize",
          "type": "uint256"
        },
        {
          "indexed": false,
          "internalType": "string",
          "name": "studentName",
          "type": "string"
        },
        {
          "indexed": false,
          "internalType": "string",
          "name": "certTitle",
          "type": "string"
        },
        {
          "indexed": false,
          "internalType": "string",
          "name": "univName",
          "type": "string"
        },
        {
          "indexed": false,
          "internalType": "uint256",
          "name": "uploadTime",
          "type": "uint256"
        },
        {
          "indexed": false,
          "internalType": "address payable",
          "name": "uploader",
          "type": "address"
        }
      ],
      "name": "CertUploaded",
      "type": "event"
    },
    {
      "inputs": [],
      "name": "certCount",
      "outputs": [
        {
          "internalType": "uint256",
          "name": "",
          "type": "uint256"
        }
      ],
      "stateMutability": "view",
      "type": "function",
      "constant": true
    },
    {
      "inputs": [
        {
          "internalType": "uint256",
          "name": "",
          "type": "uint256"
        }
      ],
      "name": "certs",
      "outputs": [
        {
          "internalType": "uint256",
          "name": "certId",
          "type": "uint256"
        },
        {
          "internalType": "string",
          "name": "certHash",
          "type": "string"
        },
        {
          "internalType": "uint256",
          "name": "certSize",
          "type": "uint256"
        },
        {
          "internalType": "string",
          "name": "studentName",
          "type": "string"
        },
        {
          "internalType": "string",
          "name": "certTitle",
          "type": "string"
        },
        {
          "internalType": "string",
          "name": "univName",
          "type": "string"
        },
        {
          "internalType": "uint256",
          "name": "uploadTime",
          "type": "uint256"
        },
        {
          "internalType": "address payable",
          "name": "uploade",
          "type": "address"
        }
      ],
      "stateMutability": "view",
      "type": "function",
      "constant": true
    },
    {
      "inputs": [],
      "name": "name",
      "outputs": [
        {
          "internalType": "string",
          "name": "",
          "type": "string"
        }
      ],
      "stateMutability": "view",
      "type": "function",
      "constant": true
    },
    {
      "inputs": [],
      "name": "owner",
      "outputs": [
        {
          "internalType": "address",
          "name": "",
          "type": "address"
        }
      ],
      "stateMutability": "view",
      "type": "function",
      "constant": true
    },
    {
      "inputs": [
        {
          "internalType": "string",
          "name": "_certHash",
          "type": "string"
        },
        {
          "internalType": "uint256",
          "name": "_certSize",
          "type": "uint256"
        },
        {
          "internalType": "string",
          "name": "_studentName",
          "type": "string"
        },
        {
          "internalType": "string",
          "name": "_certTitle",
          "type": "string"
        },
        {
          "internalType": "string",
          "name": "_univName",
          "type": "string"
        }
      ],
      "name": "uploadCert",
      "outputs": [],
      "stateMutability": "nonpayable",
      "type": "function"
    }
  ],
  "bytecode": "0x60806040526040518060400160405280600d81526020017f43657274696669636174696f6e000000000000000000000000000000000000008152506000908051906020019062000051929190620000ac565b5060006001553480156200006457600080fd5b5033600260006101000a81548173ffffffffffffffffffffffffffffffffffffffff021916908373ffffffffffffffffffffffffffffffffffffffff160217905550620001c1565b828054620000ba906200015c565b90600052602060002090601f016020900481019282620000de57600085556200012a565b82601f10620000f957805160ff19168380011785556200012a565b828001600101855582156200012a579182015b82811115620001295782518255916020019190600101906200010c565b5b5090506200013991906200013d565b5090565b5b80821115620001585760008160009055506001016200013e565b5090565b600060028204905060018216806200017557607f821691505b602082108114156200018c576200018b62000192565b5b50919050565b7f4e487b7100000000000000000000000000000000000000000000000000000000600052602260045260246000fd5b610cfc80620001d16000396000f3fe608060405234801561001057600080fd5b50600436106100575760003560e01c806306fdde031461005c578063646750d61461007a5780638da5cb5b146100b15780639b73734c146100cf578063d4e207a2146100eb575b600080fd5b610064610109565b6040516100719190610978565b60405180910390f35b610094600480360381019061008f91906108ca565b610197565b6040516100a89897969594939291906109b5565b60405180910390f35b6100b961041f565b6040516100c6919061095d565b60405180910390f35b6100e960048036038101906100e491906107df565b610445565b005b6100f36106b1565b604051610100919061099a565b60405180910390f35b6000805461011690610b51565b80601f016020809104026020016040519081016040528092919081815260200182805461014290610b51565b801561018f5780601f106101645761010080835404028352916020019161018f565b820191906000526020600020905b81548152906001019060200180831161017257829003601f168201915b505050505081565b60036020528060005260406000206000915090508060000154908060010180546101c090610b51565b80601f01602080910402602001604051908101604052809291908181526020018280546101ec90610b51565b80156102395780601f1061020e57610100808354040283529160200191610239565b820191906000526020600020905b81548152906001019060200180831161021c57829003601f168201915b50505050509080600201549080600301805461025490610b51565b80601f016020809104026020016040519081016040528092919081815260200182805461028090610b51565b80156102cd5780601f106102a2576101008083540402835291602001916102cd565b820191906000526020600020905b8154815290600101906020018083116102b057829003601f168201915b5050505050908060040180546102e290610b51565b80601f016020809104026020016040519081016040528092919081815260200182805461030e90610b51565b801561035b5780601f106103305761010080835404028352916020019161035b565b820191906000526020600020905b81548152906001019060200180831161033e57829003601f168201915b50505050509080600501805461037090610b51565b80601f016020809104026020016040519081016040528092919081815260200182805461039c90610b51565b80156103e95780601f106103be576101008083540402835291602001916103e9565b820191906000526020600020905b8154815290600101906020018083116103cc57829003601f168201915b5050505050908060060154908060070160009054906101000a900473ffffffffffffffffffffffffffffffffffffffff16905088565b600260009054906101000a900473ffffffffffffffffffffffffffffffffffffffff1681565b600085511161045357600080fd5b600083511161046157600080fd5b600082511161046f57600080fd5b600081511161047d57600080fd5b600073ffffffffffffffffffffffffffffffffffffffff163373ffffffffffffffffffffffffffffffffffffffff1614156104b757600080fd5b600084116104c457600080fd5b600160008154809291906104d790610bb4565b91905055506040518061010001604052806001548152602001868152602001858152602001848152602001838152602001828152602001428152602001600260009054906101000a900473ffffffffffffffffffffffffffffffffffffffff1673ffffffffffffffffffffffffffffffffffffffff1681525060036000600154815260200190815260200160002060008201518160000155602082015181600101908051906020019061058b9291906106b7565b506040820151816002015560608201518160030190805190602001906105b29291906106b7565b5060808201518160040190805190602001906105cf9291906106b7565b5060a08201518160050190805190602001906105ec9291906106b7565b5060c0820151816006015560e08201518160070160006101000a81548173ffffffffffffffffffffffffffffffffffffffff021916908373ffffffffffffffffffffffffffffffffffffffff1602179055509050507fef36ff9a496b10cbe8846a65971e4eccc900a1160479b9bc37071a220f715a56600154868686868642600260009054906101000a900473ffffffffffffffffffffffffffffffffffffffff166040516106a29897969594939291906109b5565b60405180910390a15050505050565b60015481565b8280546106c390610b51565b90600052602060002090601f0160209004810192826106e5576000855561072c565b82601f106106fe57805160ff191683800117855561072c565b8280016001018555821561072c579182015b8281111561072b578251825591602001919060010190610710565b5b509050610739919061073d565b5090565b5b8082111561075657600081600090555060010161073e565b5090565b600061076d61076884610a74565b610a4f565b90508281526020810184848401111561078957610788610c8f565b5b610794848285610b0f565b509392505050565b600082601f8301126107b1576107b0610c8a565b5b81356107c184826020860161075a565b91505092915050565b6000813590506107d981610caf565b92915050565b600080600080600060a086880312156107fb576107fa610c99565b5b600086013567ffffffffffffffff81111561081957610818610c94565b5b6108258882890161079c565b9550506020610836888289016107ca565b945050604086013567ffffffffffffffff81111561085757610856610c94565b5b6108638882890161079c565b935050606086013567ffffffffffffffff81111561088457610883610c94565b5b6108908882890161079c565b925050608086013567ffffffffffffffff8111156108b1576108b0610c94565b5b6108bd8882890161079c565b9150509295509295909350565b6000602082840312156108e0576108df610c99565b5b60006108ee848285016107ca565b91505092915050565b61090081610ad3565b82525050565b61090f81610ac1565b82525050565b600061092082610aa5565b61092a8185610ab0565b935061093a818560208601610b1e565b61094381610c9e565b840191505092915050565b61095781610b05565b82525050565b60006020820190506109726000830184610906565b92915050565b600060208201905081810360008301526109928184610915565b905092915050565b60006020820190506109af600083018461094e565b92915050565b6000610100820190506109cb600083018b61094e565b81810360208301526109dd818a610915565b90506109ec604083018961094e565b81810360608301526109fe8188610915565b90508181036080830152610a128187610915565b905081810360a0830152610a268186610915565b9050610a3560c083018561094e565b610a4260e08301846108f7565b9998505050505050505050565b6000610a59610a6a565b9050610a658282610b83565b919050565b6000604051905090565b600067ffffffffffffffff821115610a8f57610a8e610c5b565b5b610a9882610c9e565b9050602081019050919050565b600081519050919050565b600082825260208201905092915050565b6000610acc82610ae5565b9050919050565b6000610ade82610ae5565b9050919050565b600073ffffffffffffffffffffffffffffffffffffffff82169050919050565b6000819050919050565b82818337600083830152505050565b60005b83811015610b3c578082015181840152602081019050610b21565b83811115610b4b576000848401525b50505050565b60006002820490506001821680610b6957607f821691505b60208210811415610b7d57610b7c610c2c565b5b50919050565b610b8c82610c9e565b810181811067ffffffffffffffff82111715610bab57610baa610c5b565b5b80604052505050565b6000610bbf82610b05565b91507fffffffffffffffffffffffffffffffffffffffffffffffffffffffffffffffff821415610bf257610bf1610bfd565b5b600182019050919050565b7f4e487b7100000000000000000000000000000000000000000000000000000000600052601160045260246000fd5b7f4e487b7100000000000000000000000000000000000000000000000000000000600052602260045260246000fd5b7f4e487b7100000000000000000000000000000000000000000000000000000000600052604160045260246000fd5b600080fd5b600080fd5b600080fd5b600080fd5b6000601f19601f8301169050919050565b610cb881610b05565b8114610cc357600080fd5b5056fea2646970667358221220c5c00182a6f0b4d62ece0347844bc7f53133eda7ea9afd9e77466b8b015d6fd164736f6c63430008060033",
  "immutableReferences": {},
  "source": "pragma solidity 0.8.6;\n// SPDX-License-Identifier: MIT\n\ncontract Certification {\n\n  string public name = 'Certification';\n  uint public certCount = 0;\n  address public owner;\n\n  mapping( uint => Cert ) public certs;\n\n  struct Cert {\n    uint certId;\n    string certHash;\n    uint certSize;\n    string studentName;\n    string certTitle;\n    string univName;\n    uint uploadTime;\n    address payable uploade;\n  }\n\n  event CertUploaded(\n    uint certId,\n    string certHash,\n    uint certSize,\n    string studentName,\n    string certTitle,\n    string univName,\n    uint uploadTime,\n    address payable uploader\n  );\n\n  constructor() {\n    owner = msg.sender;\n  }\n\n  function uploadCert(\n    string memory _certHash,\n    uint _certSize,\n    string memory _studentName,\n    string memory _certTitle,\n    string memory _univName\n  ) public {\n    require(bytes(_certHash).length > 0);\n    require(bytes(_studentName).length > 0);\n    require(bytes(_certTitle).length > 0);\n    require(bytes(_univName).length > 0);\n    require(msg.sender!=address(0));\n    require(_certSize>0);\n    certCount ++;\n    // Add cert to the contract\n    certs[certCount] = Cert(certCount, _certHash, _certSize, _studentName, _certTitle, _univName, block.timestamp, payable(owner));\n    // Trigger an event\n    emit CertUploaded(certCount, _certHash, _certSize, _studentName, _certTitle, _univName, block.timestamp, payable(owner));\n  }\n}\n",
  "sourcePath": "/home/hp15/Documents/Info/M2/Projet-M2/client/src/contracts/Certifications.sol",
  "compiler": {
    "name": "solc",
    "version": "0.8.6+commit.11564f7e.Emscripten.clang"
  },
  "schemaVersion": "3.4.1",
  "updatedAt": "2021-08-07T23:38:12.819Z",
  "networkType": "ethereum",
  "devdoc": {
    "kind": "dev",
    "methods": {},
    "version": 1
  },
  "userdoc": {
    "kind": "user",
    "methods": {},
    "version": 1
  }
}