{
  "contractName": "Certification",
  "abi": [
    {
      "anonymous": false,
      "inputs": [
        {
          "indexed": false,
          "internalType": "string",
          "name": "certHash",
          "type": "string"
        },
        {
          "indexed": false,
          "internalType": "uint256",
          "name": "certSize",
          "type": "uint256"
        },
        {
          "indexed": false,
          "internalType": "string",
          "name": "studentName",
          "type": "string"
        },
        {
          "indexed": false,
          "internalType": "string",
          "name": "certTitle",
          "type": "string"
        },
        {
          "indexed": false,
          "internalType": "uint256",
          "name": "uploadTime",
          "type": "uint256"
        },
        {
          "indexed": false,
          "internalType": "address",
          "name": "uploader",
          "type": "address"
        },
        {
          "indexed": false,
          "internalType": "uint256",
          "name": "index",
          "type": "uint256"
        }
      ],
      "name": "LogNewCert",
      "type": "event"
    },
    {
      "constant": true,
      "inputs": [
        {
          "internalType": "uint256",
          "name": "",
          "type": "uint256"
        }
      ],
      "name": "certIndex",
      "outputs": [
        {
          "internalType": "string",
          "name": "",
          "type": "string"
        }
      ],
      "payable": false,
      "stateMutability": "view",
      "type": "function"
    },
    {
      "constant": true,
      "inputs": [
        {
          "internalType": "string",
          "name": "",
          "type": "string"
        }
      ],
      "name": "certs",
      "outputs": [
        {
          "internalType": "string",
          "name": "certHash",
          "type": "string"
        },
        {
          "internalType": "uint256",
          "name": "certSize",
          "type": "uint256"
        },
        {
          "internalType": "string",
          "name": "studentName",
          "type": "string"
        },
        {
          "internalType": "string",
          "name": "certTitle",
          "type": "string"
        },
        {
          "internalType": "uint256",
          "name": "uploadTime",
          "type": "uint256"
        },
        {
          "internalType": "address",
          "name": "uploader",
          "type": "address"
        },
        {
          "internalType": "uint256",
          "name": "index",
          "type": "uint256"
        }
      ],
      "payable": false,
      "stateMutability": "view",
      "type": "function"
    },
    {
      "constant": true,
      "inputs": [
        {
          "internalType": "string",
          "name": "certHash",
          "type": "string"
        }
      ],
      "name": "isExist",
      "outputs": [
        {
          "internalType": "bool",
          "name": "isIndeed",
          "type": "bool"
        }
      ],
      "payable": false,
      "stateMutability": "view",
      "type": "function"
    },
    {
      "constant": false,
      "inputs": [
        {
          "internalType": "string",
          "name": "_certHash",
          "type": "string"
        },
        {
          "internalType": "uint256",
          "name": "_certSize",
          "type": "uint256"
        },
        {
          "internalType": "string",
          "name": "_certTitle",
          "type": "string"
        },
        {
          "internalType": "string",
          "name": "_studentName",
          "type": "string"
        }
      ],
      "name": "insertCert",
      "outputs": [
        {
          "internalType": "uint256",
          "name": "_index",
          "type": "uint256"
        }
      ],
      "payable": false,
      "stateMutability": "nonpayable",
      "type": "function"
    },
    {
      "constant": true,
      "inputs": [],
      "name": "getCertsCount",
      "outputs": [
        {
          "internalType": "uint256",
          "name": "_count",
          "type": "uint256"
        }
      ],
      "payable": false,
      "stateMutability": "view",
      "type": "function"
    }
  ],
  "bytecode": "0x608060405234801561001057600080fd5b506111e4806100206000396000f3fe608060405234801561001057600080fd5b50600436106100575760003560e01c80634d3d096b1461005c5780639dc64c731461012f578063cebdc1c514610336578063d117f3671461058a578063f0e1fdba14610631575b600080fd5b6101156004803603602081101561007257600080fd5b810190808035906020019064010000000081111561008f57600080fd5b8201836020820111156100a157600080fd5b803590602001918460018302840111640100000000831117156100c357600080fd5b91908080601f016020809104026020016040519081016040528093929190818152602001838380828437600081840152601f19601f82011690508083019250505050505050919291929050505061064f565b604051808215151515815260200191505060405180910390f35b6103206004803603608081101561014557600080fd5b810190808035906020019064010000000081111561016257600080fd5b82018360208201111561017457600080fd5b8035906020019184600183028401116401000000008311171561019657600080fd5b91908080601f016020809104026020016040519081016040528093929190818152602001838380828437600081840152601f19601f820116905080830192505050505050509192919290803590602001909291908035906020019064010000000081111561020357600080fd5b82018360208201111561021557600080fd5b8035906020019184600183028401116401000000008311171561023757600080fd5b91908080601f016020809104026020016040519081016040528093929190818152602001838380828437600081840152601f19601f8201169050808301925050505050505091929192908035906020019064010000000081111561029a57600080fd5b8201836020820111156102ac57600080fd5b803590602001918460018302840111640100000000831117156102ce57600080fd5b91908080601f016020809104026020016040519081016040528093929190818152602001838380828437600081840152601f19601f820116905080830192505050505050509192919290505050610794565b6040518082815260200191505060405180910390f35b6103ef6004803603602081101561034c57600080fd5b810190808035906020019064010000000081111561036957600080fd5b82018360208201111561037b57600080fd5b8035906020019184600183028401116401000000008311171561039d57600080fd5b91908080601f016020809104026020016040519081016040528093929190818152602001838380828437600081840152601f19601f820116905080830192505050505050509192919290505050610d15565b604051808060200188815260200180602001806020018781526020018673ffffffffffffffffffffffffffffffffffffffff1673ffffffffffffffffffffffffffffffffffffffff16815260200185815260200184810384528b818151815260200191508051906020019080838360005b8381101561047b578082015181840152602081019050610460565b50505050905090810190601f1680156104a85780820380516001836020036101000a031916815260200191505b50848103835289818151815260200191508051906020019080838360005b838110156104e15780820151818401526020810190506104c6565b50505050905090810190601f16801561050e5780820380516001836020036101000a031916815260200191505b50848103825288818151815260200191508051906020019080838360005b8381101561054757808201518184015260208101905061052c565b50505050905090810190601f1680156105745780820380516001836020036101000a031916815260200191505b509a505050505050505050505060405180910390f35b6105b6600480360360208110156105a057600080fd5b8101908080359060200190929190505050610f55565b6040518080602001828103825283818151815260200191508051906020019080838360005b838110156105f65780820151818401526020810190506105db565b50505050905090810190601f1680156106235780820380516001836020036101000a031916815260200191505b509250505060405180910390f35b61063961100e565b6040518082815260200191505060405180910390f35b6000806001805490501415610667576000905061078f565b61078c60016000846040518082805190602001908083835b602083106106a2578051825260208201915060208101905060208303925061067f565b6001836020036101000a038019825116818451168082178552505050505050905001915050908152602001604051809103902060060154815481106106e357fe5b906000526020600020018054600181600116156101000203166002900480601f0160208091040260200160405190810160405280929190818152602001828054600181600116156101000203166002900480156107815780601f1061075657610100808354040283529160200191610781565b820191906000526020600020905b81548152906001019060200180831161076457829003601f168201915b50505050508361101b565b90505b919050565b6000836000866040518082805190602001908083835b602083106107cd57805182526020820191506020810190506020830392506107aa565b6001836020036101000a038019825116818451168082178552505050505050905001915050908152602001604051809103902060010181905550816000866040518082805190602001908083835b6020831061083e578051825260208201915060208101905060208303925061081b565b6001836020036101000a0380198251168184511680821785525050505050509050019150509081526020016040518091039020600201908051906020019061088792919061110a565b50826000866040518082805190602001908083835b602083106108bf578051825260208201915060208101905060208303925061089c565b6001836020036101000a0380198251168184511680821785525050505050509050019150509081526020016040518091039020600301908051906020019061090892919061110a565b50426000866040518082805190602001908083835b60208310610940578051825260208201915060208101905060208303925061091d565b6001836020036101000a038019825116818451168082178552505050505050905001915050908152602001604051809103902060040181905550336000866040518082805190602001908083835b602083106109b1578051825260208201915060208101905060208303925061098e565b6001836020036101000a038019825116818451168082178552505050505050905001915050908152602001604051809103902060050160006101000a81548173ffffffffffffffffffffffffffffffffffffffff021916908373ffffffffffffffffffffffffffffffffffffffff160217905550600180869080600181540180825580915050906001820390600052602060002001600090919290919091509080519060200190610a6392919061110a565b50036000866040518082805190602001908083835b60208310610a9b5780518252602082019150602081019050602083039250610a78565b6001836020036101000a0380198251168184511680821785525050505050509050019150509081526020016040518091039020600601819055507f076c5a2ae2c1e8ee74512f365d0b6072729bef3929f6e5750bc2c461294f2bf185858486423360008c6040518082805190602001908083835b60208310610b325780518252602082019150602081019050602083039250610b0f565b6001836020036101000a038019825116818451168082178552505050505050905001915050908152602001604051809103902060060154604051808060200188815260200180602001806020018781526020018673ffffffffffffffffffffffffffffffffffffffff1673ffffffffffffffffffffffffffffffffffffffff16815260200185815260200184810384528b818151815260200191508051906020019080838360005b83811015610bf5578082015181840152602081019050610bda565b50505050905090810190601f168015610c225780820380516001836020036101000a031916815260200191505b50848103835289818151815260200191508051906020019080838360005b83811015610c5b578082015181840152602081019050610c40565b50505050905090810190601f168015610c885780820380516001836020036101000a031916815260200191505b50848103825288818151815260200191508051906020019080838360005b83811015610cc1578082015181840152602081019050610ca6565b50505050905090810190601f168015610cee5780820380516001836020036101000a031916815260200191505b509a505050505050505050505060405180910390a160018080549050039050949350505050565b600081805160208101820180518482526020830160208501208183528095505050505050600091509050806000018054600181600116156101000203166002900480601f016020809104026020016040519081016040528092919081815260200182805460018160011615610100020316600290048015610dd75780601f10610dac57610100808354040283529160200191610dd7565b820191906000526020600020905b815481529060010190602001808311610dba57829003601f168201915b505050505090806001015490806002018054600181600116156101000203166002900480601f016020809104026020016040519081016040528092919081815260200182805460018160011615610100020316600290048015610e7b5780601f10610e5057610100808354040283529160200191610e7b565b820191906000526020600020905b815481529060010190602001808311610e5e57829003601f168201915b505050505090806003018054600181600116156101000203166002900480601f016020809104026020016040519081016040528092919081815260200182805460018160011615610100020316600290048015610f195780601f10610eee57610100808354040283529160200191610f19565b820191906000526020600020905b815481529060010190602001808311610efc57829003601f168201915b5050505050908060040154908060050160009054906101000a900473ffffffffffffffffffffffffffffffffffffffff16908060060154905087565b60018181548110610f6257fe5b906000526020600020016000915090508054600181600116156101000203166002900480601f0160208091040260200160405190810160405280929190818152602001828054600181600116156101000203166002900480156110065780601f10610fdb57610100808354040283529160200191611006565b820191906000526020600020905b815481529060010190602001808311610fe957829003601f168201915b505050505081565b6000600180549050905090565b6000816040516020018082805190602001908083835b602083106110545780518252602082019150602081019050602083039250611031565b6001836020036101000a03801982511681845116808217855250505050505090500191505060405160208183030381529060405280519060200120836040516020018082805190602001908083835b602083106110c657805182526020820191506020810190506020830392506110a3565b6001836020036101000a0380198251168184511680821785525050505050509050019150506040516020818303038152906040528051906020012014905092915050565b828054600181600116156101000203166002900490600052602060002090601f016020900481019282601f1061114b57805160ff1916838001178555611179565b82800160010185558215611179579182015b8281111561117857825182559160200191906001019061115d565b5b509050611186919061118a565b5090565b6111ac91905b808211156111a8576000816000905550600101611190565b5090565b9056fea265627a7a7231582031287739a15a3a884fa9243622ec877e7e7139155df2acc43c05411f61595ac064736f6c63430005110032",
  "source": "pragma solidity >=0.5.0 <0.6.0;\n// SPDX-License-Identifier: MIT\n\ncontract Certification {\n    struct Cert {\n        string certHash;\n        uint certSize;\n        string studentName;\n        string certTitle;\n        uint uploadTime;\n        address uploader;\n        uint index;\n    }\n\n    mapping (string => Cert) public certs;\n    string[] public certIndex;\n\n    event LogNewCert (string certHash, uint certSize, string studentName, string certTitle, uint uploadTime, address uploader, uint index);\n\n    function isExist(string memory certHash) public view returns (bool isIndeed) {\n        if(certIndex.length == 0) return false;\n        return (compareStrings(certIndex[certs[certHash].index], certHash));\n    }\n\n    function insertCert(\n        string memory _certHash,\n        uint _certSize,\n        string memory _certTitle,\n        string memory _studentName\n        ) public returns(uint _index) {\n\n        certs[_certHash].certSize = _certSize;\n        certs[_certHash].studentName = _studentName;\n        certs[_certHash].certTitle = _certTitle;\n        certs[_certHash].uploadTime = block.timestamp;\n        certs[_certHash].uploader = msg.sender;\n        certs[_certHash].index = certIndex.push(_certHash)-1;\n\n        // certs[_certHash] = Cert(_certHash, _certSize, _studentName, block.timestamp, msg.sender, certIndex.push(_certHash)-1);\n\n        emit LogNewCert(\n            _certHash,\n            _certSize,\n            _studentName,\n            _certTitle,\n            block.timestamp,\n            msg.sender,\n            certs[_certHash].index\n        );\n        return certIndex.length -1;\n    }\n\n    function getCertsCount() public view returns (uint _count) {\n        return certIndex.length;\n    }\n\n    function compareStrings(string memory a, string memory b) private pure returns (bool) {\n        return (keccak256(abi.encodePacked((a))) == keccak256(abi.encodePacked((b))));\n    }\n}",
  "sourcePath": "/home/hp15/Documents/Info/M2/Projet-M2/client/src/contracts/Certifications.sol",
  "compiler": {
    "name": "solc",
    "version": "0.5.17+commit.d19bba13.Emscripten.clang"
  },
  "schemaVersion": "3.4.1",
  "updatedAt": "2021-08-16T21:48:23.441Z",
  "networkType": "ethereum",
  "devdoc": {
    "methods": {}
  },
  "userdoc": {
    "methods": {}
  }
}